{
  "contractName": "certificate",
  "abi": [
    {
      "inputs": [],
      "stateMutability": "nonpayable",
      "type": "constructor"
    },
    {
      "inputs": [
        {
          "internalType": "address",
          "name": "",
          "type": "address"
        }
      ],
      "name": "addressToInfo",
      "outputs": [
        {
          "internalType": "address",
          "name": "addr",
          "type": "address"
        },
        {
          "internalType": "string",
          "name": "name",
          "type": "string"
        },
        {
          "internalType": "string",
          "name": "birth",
          "type": "string"
        },
        {
          "internalType": "uint256",
          "name": "notBefore",
          "type": "uint256"
        },
        {
          "internalType": "uint256",
          "name": "notAfter",
          "type": "uint256"
        },
        {
          "internalType": "bytes32",
          "name": "id",
          "type": "bytes32"
        }
      ],
      "stateMutability": "view",
      "type": "function",
      "constant": true
    },
    {
      "inputs": [
        {
          "internalType": "address",
          "name": "",
          "type": "address"
        }
      ],
      "name": "certificates",
      "outputs": [
        {
          "internalType": "bytes32",
          "name": "certhash",
          "type": "bytes32"
        },
        {
          "internalType": "address",
          "name": "caPubkey",
          "type": "address"
        },
        {
          "internalType": "address",
          "name": "userPubkey",
          "type": "address"
        }
      ],
      "stateMutability": "view",
      "type": "function",
      "constant": true
    },
    {
      "inputs": [
        {
          "internalType": "uint256",
          "name": "",
          "type": "uint256"
        }
      ],
      "name": "del",
      "outputs": [
        {
          "internalType": "bytes32",
          "name": "certhash",
          "type": "bytes32"
        }
      ],
      "stateMutability": "view",
      "type": "function",
      "constant": true
    },
    {
      "inputs": [],
      "name": "hasinfo",
      "outputs": [
        {
          "internalType": "bool",
          "name": "",
          "type": "bool"
        }
      ],
      "stateMutability": "nonpayable",
      "type": "function"
    },
    {
      "inputs": [],
      "name": "setId",
      "outputs": [
        {
          "internalType": "bytes32",
          "name": "",
          "type": "bytes32"
        }
      ],
      "stateMutability": "view",
      "type": "function",
      "constant": true
    },
    {
      "inputs": [],
      "name": "getCertificate",
      "outputs": [
        {
          "internalType": "address",
          "name": "",
          "type": "address"
        },
        {
          "internalType": "string",
          "name": "",
          "type": "string"
        },
        {
          "internalType": "string",
          "name": "",
          "type": "string"
        },
        {
          "internalType": "uint256",
          "name": "",
          "type": "uint256"
        },
        {
          "internalType": "uint256",
          "name": "",
          "type": "uint256"
        },
        {
          "internalType": "bytes32",
          "name": "",
          "type": "bytes32"
        },
        {
          "internalType": "address",
          "name": "",
          "type": "address"
        }
      ],
      "stateMutability": "view",
      "type": "function",
      "constant": true
    },
    {
      "inputs": [],
      "name": "getCertInfo",
      "outputs": [
        {
          "internalType": "bytes32",
          "name": "",
          "type": "bytes32"
        },
        {
          "internalType": "address",
          "name": "",
          "type": "address"
        },
        {
          "internalType": "address",
          "name": "",
          "type": "address"
        }
      ],
      "stateMutability": "view",
      "type": "function",
      "constant": true
    },
    {
      "inputs": [
        {
          "internalType": "string",
          "name": "name",
          "type": "string"
        },
        {
          "internalType": "string",
          "name": "birth",
          "type": "string"
        }
      ],
      "name": "issue",
      "outputs": [],
      "stateMutability": "nonpayable",
      "type": "function"
    },
    {
      "inputs": [
        {
          "internalType": "bytes32",
          "name": "hash",
          "type": "bytes32"
        }
      ],
      "name": "verification",
      "outputs": [
        {
          "internalType": "bool",
          "name": "",
          "type": "bool"
        }
      ],
      "stateMutability": "view",
      "type": "function",
      "constant": true
    },
    {
      "inputs": [
        {
          "internalType": "string",
          "name": "name",
          "type": "string"
        },
        {
          "internalType": "string",
          "name": "birth",
          "type": "string"
        },
        {
          "internalType": "uint256",
          "name": "nbefore",
          "type": "uint256"
        },
        {
          "internalType": "uint256",
          "name": "nafter",
          "type": "uint256"
        },
        {
          "internalType": "bytes32",
          "name": "id",
          "type": "bytes32"
        }
      ],
      "name": "verification2",
      "outputs": [
        {
          "internalType": "bool",
          "name": "",
          "type": "bool"
        }
      ],
      "stateMutability": "view",
      "type": "function",
      "constant": true
    },
    {
      "inputs": [],
      "name": "deleteCert",
      "outputs": [],
      "stateMutability": "nonpayable",
      "type": "function"
    }
  ],
  "bytecode": "0x608060405234801561001057600080fd5b5033600160006101000a81548173ffffffffffffffffffffffffffffffffffffffff021916908373ffffffffffffffffffffffffffffffffffffffff160217905550612357806100616000396000f3fe608060405234801561001057600080fd5b50600436106100a85760003560e01c806357771a231161007157806357771a2314610143578063581e85f0146101735780637f50670a146101a3578063ae15eb8e146101d8578063d05c11e6146101fc578063f5e93d691461021a576100a8565b806216e526146100ad578063040c2b0f146100df578063087e926c146100e95780631532f93a14610107578063289fd65414610127575b600080fd5b6100c760048036038101906100c29190611b2f565b61024a565b6040516100d693929190611b84565b60405180910390f35b6100e76102b4565b005b6100f1610433565b6040516100fe9190611bbb565b60405180910390f35b61010f610463565b60405161011e93929190611b84565b60405180910390f35b610141600480360381019061013c9190611d1c565b61057c565b005b61015d60048036038101906101589190611dca565b6105af565b60405161016a9190611bbb565b60405180910390f35b61018d60048036038101906101889190611e23565b6105d9565b60405161019a9190611e6b565b60405180910390f35b6101bd60048036038101906101b89190611b2f565b610638565b6040516101cf96959493929190611f1d565b60405180910390f35b6101e06107a4565b6040516101f39796959493929190611f8c565b60405180910390f35b610204610a8f565b6040516102119190611e6b565b60405180910390f35b610234600480360381019061022f9190612009565b610aef565b6040516102419190611e6b565b60405180910390f35b60056020528060005260406000206000915090508060000154908060010160009054906101000a900473ffffffffffffffffffffffffffffffffffffffff16908060020160009054906101000a900473ffffffffffffffffffffffffffffffffffffffff16905083565b6006604051806020016040528060005481525090806001815401808255809150506001900390600052602060002001600090919091909150600082015181600001555050600460003373ffffffffffffffffffffffffffffffffffffffff1673ffffffffffffffffffffffffffffffffffffffff168152602001908152602001600020600080820160006101000a81549073ffffffffffffffffffffffffffffffffffffffff021916905560018201600061036f91906119da565b60028201600061037f91906119da565b6003820160009055600482016000905560058201600090555050600560003373ffffffffffffffffffffffffffffffffffffffff1673ffffffffffffffffffffffffffffffffffffffff1681526020019081526020016000206000808201600090556001820160006101000a81549073ffffffffffffffffffffffffffffffffffffffff02191690556002820160006101000a81549073ffffffffffffffffffffffffffffffffffffffff02191690555050565b60004233604051602001610448929190612125565b60405160208183030381529060405280519060200120905090565b6000806000600560003373ffffffffffffffffffffffffffffffffffffffff1673ffffffffffffffffffffffffffffffffffffffff16815260200190815260200160002060000154600560003373ffffffffffffffffffffffffffffffffffffffff1673ffffffffffffffffffffffffffffffffffffffff16815260200190815260200160002060010160009054906101000a900473ffffffffffffffffffffffffffffffffffffffff16600560003373ffffffffffffffffffffffffffffffffffffffff1673ffffffffffffffffffffffffffffffffffffffff16815260200190815260200160002060020160009054906101000a900473ffffffffffffffffffffffffffffffffffffffff16925092509250909192565b60001515610588610a8f565b151514156105ab57610598610fc1565b6105a28282610fe2565b6105aa6113ec565b5b5050565b600681815481106105bf57600080fd5b906000526020600020016000915090508060000154905081565b6000600560003373ffffffffffffffffffffffffffffffffffffffff1673ffffffffffffffffffffffffffffffffffffffff1681526020019081526020016000206000015482141561062e5760019050610633565b600090505b919050565b60046020528060005260406000206000915090508060000160009054906101000a900473ffffffffffffffffffffffffffffffffffffffff169080600101805461068190612180565b80601f01602080910402602001604051908101604052809291908181526020018280546106ad90612180565b80156106fa5780601f106106cf576101008083540402835291602001916106fa565b820191906000526020600020905b8154815290600101906020018083116106dd57829003601f168201915b50505050509080600201805461070f90612180565b80601f016020809104026020016040519081016040528092919081815260200182805461073b90612180565b80156107885780601f1061075d57610100808354040283529160200191610788565b820191906000526020600020905b81548152906001019060200180831161076b57829003601f168201915b5050505050908060030154908060040154908060050154905086565b6000606080600080600080600460003373ffffffffffffffffffffffffffffffffffffffff1673ffffffffffffffffffffffffffffffffffffffff16815260200190815260200160002060000160009054906101000a900473ffffffffffffffffffffffffffffffffffffffff16600460003373ffffffffffffffffffffffffffffffffffffffff1673ffffffffffffffffffffffffffffffffffffffff168152602001908152602001600020600101600460003373ffffffffffffffffffffffffffffffffffffffff1673ffffffffffffffffffffffffffffffffffffffff168152602001908152602001600020600201600460003373ffffffffffffffffffffffffffffffffffffffff1673ffffffffffffffffffffffffffffffffffffffff16815260200190815260200160002060030154600460003373ffffffffffffffffffffffffffffffffffffffff1673ffffffffffffffffffffffffffffffffffffffff16815260200190815260200160002060040154600460003373ffffffffffffffffffffffffffffffffffffffff1673ffffffffffffffffffffffffffffffffffffffff168152602001908152602001600020600501543385805461096c90612180565b80601f016020809104026020016040519081016040528092919081815260200182805461099890612180565b80156109e55780601f106109ba576101008083540402835291602001916109e5565b820191906000526020600020905b8154815290600101906020018083116109c857829003601f168201915b505050505095508480546109f890612180565b80601f0160208091040260200160405190810160405280929190818152602001828054610a2490612180565b8015610a715780601f10610a4657610100808354040283529160200191610a71565b820191906000526020600020905b815481529060010190602001808311610a5457829003601f168201915b50505050509450965096509650965096509650965090919293949596565b60008060001b600460003373ffffffffffffffffffffffffffffffffffffffff1673ffffffffffffffffffffffffffffffffffffffff168152602001908152602001600020600501541415610ae75760009050610aec565b600190505b90565b600080855187516074610b0291906121e1565b610b0c91906121e1565b905060008167ffffffffffffffff811115610b2a57610b29611bf1565b5b6040519080825280601f01601f191660200182016040528015610b5c5781602001600182028036833780820191505090505b50905060008033604051602001610b739190612237565b6040516020818303038152906040529050600088604051602001610b979190612252565b6040516020818303038152906040529050600088604051602001610bbb9190612252565b6040516020818303038152906040529050600088604051602001610bdf919061228e565b604051602081830303815290604052905060005b6014811015610c7d57848181518110610c0f57610c0e6122a9565b5b602001015160f81c60f81b878781518110610c2d57610c2c6122a9565b5b60200101907effffffffffffffffffffffffffffffffffffffffffffffffffffffffffffff1916908160001a9053508580610c67906122d8565b9650508080610c75906122d8565b915050610bf3565b5060005b8d51811015610d0b578d8181518110610c9d57610c9c6122a9565b5b602001015160f81c60f81b878781518110610cbb57610cba6122a9565b5b60200101907effffffffffffffffffffffffffffffffffffffffffffffffffffffffffffff1916908160001a9053508580610cf5906122d8565b9650508080610d03906122d8565b915050610c81565b5060005b8c51811015610d99578c8181518110610d2b57610d2a6122a9565b5b602001015160f81c60f81b878781518110610d4957610d486122a9565b5b60200101907effffffffffffffffffffffffffffffffffffffffffffffffffffffffffffff1916908160001a9053508580610d83906122d8565b9650508080610d91906122d8565b915050610d0f565b5060005b6020811015610e2757838181518110610db957610db86122a9565b5b602001015160f81c60f81b878781518110610dd757610dd66122a9565b5b60200101907effffffffffffffffffffffffffffffffffffffffffffffffffffffffffffff1916908160001a9053508580610e11906122d8565b9650508080610e1f906122d8565b915050610d9d565b5060005b6020811015610eb557828181518110610e4757610e466122a9565b5b602001015160f81c60f81b878781518110610e6557610e646122a9565b5b60200101907effffffffffffffffffffffffffffffffffffffffffffffffffffffffffffff1916908160001a9053508580610e9f906122d8565b9650508080610ead906122d8565b915050610e2b565b5060005b6020811015610f4357818181518110610ed557610ed46122a9565b5b602001015160f81c60f81b878781518110610ef357610ef26122a9565b5b60200101907effffffffffffffffffffffffffffffffffffffffffffffffffffffffffffff1916908160001a9053508580610f2d906122d8565b9650508080610f3b906122d8565b915050610eb9565b50600086805190602001209050600560003373ffffffffffffffffffffffffffffffffffffffff1673ffffffffffffffffffffffffffffffffffffffff16815260200190815260200160002060000154811415610fab57600198505050505050505050610fb8565b6000985050505050505050505b95945050505050565b426002819055506301e13380600254610fda91906121e1565b600381905550565b33600460003373ffffffffffffffffffffffffffffffffffffffff1673ffffffffffffffffffffffffffffffffffffffff16815260200190815260200160002060000160006101000a81548173ffffffffffffffffffffffffffffffffffffffff021916908373ffffffffffffffffffffffffffffffffffffffff16021790555081600460003373ffffffffffffffffffffffffffffffffffffffff1673ffffffffffffffffffffffffffffffffffffffff16815260200190815260200160002060010190805190602001906110b9929190611a1a565b5080600460003373ffffffffffffffffffffffffffffffffffffffff1673ffffffffffffffffffffffffffffffffffffffff1681526020019081526020016000206002019080519060200190611110929190611a1a565b50600254600460003373ffffffffffffffffffffffffffffffffffffffff1673ffffffffffffffffffffffffffffffffffffffff16815260200190815260200160002060030181905550600354600460003373ffffffffffffffffffffffffffffffffffffffff1673ffffffffffffffffffffffffffffffffffffffff168152602001908152602001600020600401819055506111ab610433565b600460003373ffffffffffffffffffffffffffffffffffffffff1673ffffffffffffffffffffffffffffffffffffffff168152602001908152602001600020600501819055506113db600460003373ffffffffffffffffffffffffffffffffffffffff1673ffffffffffffffffffffffffffffffffffffffff1681526020019081526020016000206040518060c00160405290816000820160009054906101000a900473ffffffffffffffffffffffffffffffffffffffff1673ffffffffffffffffffffffffffffffffffffffff1673ffffffffffffffffffffffffffffffffffffffff1681526020016001820180546112a490612180565b80601f01602080910402602001604051908101604052809291908181526020018280546112d090612180565b801561131d5780601f106112f25761010080835404028352916020019161131d565b820191906000526020600020905b81548152906001019060200180831161130057829003601f168201915b5050505050815260200160028201805461133690612180565b80601f016020809104026020016040519081016040528092919081815260200182805461136290612180565b80156113af5780601f10611384576101008083540402835291602001916113af565b820191906000526020600020905b81548152906001019060200180831161139257829003601f168201915b50505050508152602001600382015481526020016004820154815260200160058201548152505061154d565b805190602001206000819055505050565b7319dec5de28cd9433d73a5fea9c9d99e137064b57600560003373ffffffffffffffffffffffffffffffffffffffff1673ffffffffffffffffffffffffffffffffffffffff16815260200190815260200160002060010160006101000a81548173ffffffffffffffffffffffffffffffffffffffff021916908373ffffffffffffffffffffffffffffffffffffffff16021790555033600560003373ffffffffffffffffffffffffffffffffffffffff1673ffffffffffffffffffffffffffffffffffffffff16815260200190815260200160002060020160006101000a81548173ffffffffffffffffffffffffffffffffffffffff021916908373ffffffffffffffffffffffffffffffffffffffff160217905550600054600560003373ffffffffffffffffffffffffffffffffffffffff1673ffffffffffffffffffffffffffffffffffffffff16815260200190815260200160002060000181905550565b60606000826040015151836020015151607461156991906121e1565b61157391906121e1565b905060008167ffffffffffffffff81111561159157611590611bf1565b5b6040519080825280601f01601f1916602001820160405280156115c35781602001600182028036833780820191505090505b50905060008085600001516040516020016115de9190612237565b6040516020818303038152906040529050600086606001516040516020016116069190612252565b60405160208183030381529060405290506000876080015160405160200161162e9190612252565b604051602081830303815290604052905060008860a00151604051602001611656919061228e565b604051602081830303815290604052905060005b60148110156116f457848181518110611686576116856122a9565b5b602001015160f81c60f81b8787815181106116a4576116a36122a9565b5b60200101907effffffffffffffffffffffffffffffffffffffffffffffffffffffffffffff1916908160001a90535085806116de906122d8565b96505080806116ec906122d8565b91505061166a565b5060005b89602001515181101561178a578960200151818151811061171c5761171b6122a9565b5b602001015160f81c60f81b87878151811061173a576117396122a9565b5b60200101907effffffffffffffffffffffffffffffffffffffffffffffffffffffffffffff1916908160001a9053508580611774906122d8565b9650508080611782906122d8565b9150506116f8565b5060005b89604001515181101561182057896040015181815181106117b2576117b16122a9565b5b602001015160f81c60f81b8787815181106117d0576117cf6122a9565b5b60200101907effffffffffffffffffffffffffffffffffffffffffffffffffffffffffffff1916908160001a905350858061180a906122d8565b9650508080611818906122d8565b91505061178e565b5060005b60208110156118ae578381815181106118405761183f6122a9565b5b602001015160f81c60f81b87878151811061185e5761185d6122a9565b5b60200101907effffffffffffffffffffffffffffffffffffffffffffffffffffffffffffff1916908160001a9053508580611898906122d8565b96505080806118a6906122d8565b915050611824565b5060005b602081101561193c578281815181106118ce576118cd6122a9565b5b602001015160f81c60f81b8787815181106118ec576118eb6122a9565b5b60200101907effffffffffffffffffffffffffffffffffffffffffffffffffffffffffffff1916908160001a9053508580611926906122d8565b9650508080611934906122d8565b9150506118b2565b5060005b60208110156119ca5781818151811061195c5761195b6122a9565b5b602001015160f81c60f81b87878151811061197a576119796122a9565b5b60200101907effffffffffffffffffffffffffffffffffffffffffffffffffffffffffffff1916908160001a90535085806119b4906122d8565b96505080806119c2906122d8565b915050611940565b5085975050505050505050919050565b5080546119e690612180565b6000825580601f106119f85750611a17565b601f016020900490600052602060002090810190611a169190611aa0565b5b50565b828054611a2690612180565b90600052602060002090601f016020900481019282611a485760008555611a8f565b82601f10611a6157805160ff1916838001178555611a8f565b82800160010185558215611a8f579182015b82811115611a8e578251825591602001919060010190611a73565b5b509050611a9c9190611aa0565b5090565b5b80821115611ab9576000816000905550600101611aa1565b5090565b6000604051905090565b600080fd5b600080fd5b600073ffffffffffffffffffffffffffffffffffffffff82169050919050565b6000611afc82611ad1565b9050919050565b611b0c81611af1565b8114611b1757600080fd5b50565b600081359050611b2981611b03565b92915050565b600060208284031215611b4557611b44611ac7565b5b6000611b5384828501611b1a565b91505092915050565b6000819050919050565b611b6f81611b5c565b82525050565b611b7e81611af1565b82525050565b6000606082019050611b996000830186611b66565b611ba66020830185611b75565b611bb36040830184611b75565b949350505050565b6000602082019050611bd06000830184611b66565b92915050565b600080fd5b600080fd5b6000601f19601f8301169050919050565b7f4e487b7100000000000000000000000000000000000000000000000000000000600052604160045260246000fd5b611c2982611be0565b810181811067ffffffffffffffff82111715611c4857611c47611bf1565b5b80604052505050565b6000611c5b611abd565b9050611c678282611c20565b919050565b600067ffffffffffffffff821115611c8757611c86611bf1565b5b611c9082611be0565b9050602081019050919050565b82818337600083830152505050565b6000611cbf611cba84611c6c565b611c51565b905082815260208101848484011115611cdb57611cda611bdb565b5b611ce6848285611c9d565b509392505050565b600082601f830112611d0357611d02611bd6565b5b8135611d13848260208601611cac565b91505092915050565b60008060408385031215611d3357611d32611ac7565b5b600083013567ffffffffffffffff811115611d5157611d50611acc565b5b611d5d85828601611cee565b925050602083013567ffffffffffffffff811115611d7e57611d7d611acc565b5b611d8a85828601611cee565b9150509250929050565b6000819050919050565b611da781611d94565b8114611db257600080fd5b50565b600081359050611dc481611d9e565b92915050565b600060208284031215611de057611ddf611ac7565b5b6000611dee84828501611db5565b91505092915050565b611e0081611b5c565b8114611e0b57600080fd5b50565b600081359050611e1d81611df7565b92915050565b600060208284031215611e3957611e38611ac7565b5b6000611e4784828501611e0e565b91505092915050565b60008115159050919050565b611e6581611e50565b82525050565b6000602082019050611e806000830184611e5c565b92915050565b600081519050919050565b600082825260208201905092915050565b60005b83811015611ec0578082015181840152602081019050611ea5565b83811115611ecf576000848401525b50505050565b6000611ee082611e86565b611eea8185611e91565b9350611efa818560208601611ea2565b611f0381611be0565b840191505092915050565b611f1781611d94565b82525050565b600060c082019050611f326000830189611b75565b8181036020830152611f448188611ed5565b90508181036040830152611f588187611ed5565b9050611f676060830186611f0e565b611f746080830185611f0e565b611f8160a0830184611b66565b979650505050505050565b600060e082019050611fa1600083018a611b75565b8181036020830152611fb38189611ed5565b90508181036040830152611fc78188611ed5565b9050611fd66060830187611f0e565b611fe36080830186611f0e565b611ff060a0830185611b66565b611ffd60c0830184611b75565b98975050505050505050565b600080600080600060a0868803121561202557612024611ac7565b5b600086013567ffffffffffffffff81111561204357612042611acc565b5b61204f88828901611cee565b955050602086013567ffffffffffffffff8111156120705761206f611acc565b5b61207c88828901611cee565b945050604061208d88828901611db5565b935050606061209e88828901611db5565b92505060806120af88828901611e0e565b9150509295509295909350565b6000819050919050565b6120d76120d282611d94565b6120bc565b82525050565b60008160601b9050919050565b60006120f5826120dd565b9050919050565b6000612107826120ea565b9050919050565b61211f61211a82611af1565b6120fc565b82525050565b600061213182856120c6565b602082019150612141828461210e565b6014820191508190509392505050565b7f4e487b7100000000000000000000000000000000000000000000000000000000600052602260045260246000fd5b6000600282049050600182168061219857607f821691505b602082108114156121ac576121ab612151565b5b50919050565b7f4e487b7100000000000000000000000000000000000000000000000000000000600052601160045260246000fd5b60006121ec82611d94565b91506121f783611d94565b9250827fffffffffffffffffffffffffffffffffffffffffffffffffffffffffffffffff0382111561222c5761222b6121b2565b5b828201905092915050565b6000612243828461210e565b60148201915081905092915050565b600061225e82846120c6565b60208201915081905092915050565b6000819050919050565b61228861228382611b5c565b61226d565b82525050565b600061229a8284612277565b60208201915081905092915050565b7f4e487b7100000000000000000000000000000000000000000000000000000000600052603260045260246000fd5b60006122e382611d94565b91507fffffffffffffffffffffffffffffffffffffffffffffffffffffffffffffffff821415612316576123156121b2565b5b60018201905091905056fea26469706673582212203bb8bb4d3736bcd21189880152c8c3e26e75c2e175d9fcf3c0ecf038527db29064736f6c634300080b0033",
  "immutableReferences": {},
  "source": "// SPDX-License-Identifier: MIT\r\npragma solidity >=0.4.22 <0.9.0;\r\n\r\ncontract certificate {\r\n    struct userinfo{\r\n        address addr; //20\r\n        string name; //bytes(u.name).length\r\n        string birth; //bytes(u.birth).length\r\n        uint notBefore; //32\r\n        uint notAfter; //32\r\n        bytes32 id; //32\r\n    }\r\n    struct cert {\r\n        bytes32 certhash;\r\n        address caPubkey;\r\n        address userPubkey;\r\n    }\r\n    \r\n    struct deleteInfo{\r\n        bytes32 certhash;\r\n    }\r\n    \r\n    bytes32 certhash;\r\n    address addr;\r\n    uint notBefore;\r\n    uint notAfter;\r\n    \r\n    constructor() public  {\r\n        addr = msg.sender;\r\n    }\r\n    \r\n    mapping(address => userinfo) public addressToInfo;\r\n    mapping(address => cert) public certificates;\r\n    deleteInfo[] public del;\r\n    \r\n    \r\n    function hasinfo() public returns(bool){\r\n        if(addressToInfo[msg.sender].id == 0 ){\r\n            return false;\r\n        }\r\n        return true;\r\n    }\r\n    \r\n    function setTime() private {\r\n        notBefore = block.timestamp;\r\n        notAfter = notBefore + 365 days;\r\n    }\r\n    \r\n    function newUserInfo(string memory name, string memory birth) private {\r\n        addressToInfo[msg.sender].addr = msg.sender;\r\n        addressToInfo[msg.sender].name = name;\r\n        addressToInfo[msg.sender].birth = birth;\r\n        addressToInfo[msg.sender].notBefore = notBefore;\r\n        addressToInfo[msg.sender].notAfter = notAfter;\r\n        addressToInfo[msg.sender].id = setId();\r\n        \r\n        certhash = keccak256(userinfoToBytes(addressToInfo[msg.sender]));\r\n        //certhash = keccak256(abi.encodePacked(addressToInfo[addr].name));\r\n    }\r\n    \r\n    function userinfoToBytes(userinfo memory u) private returns (bytes memory data){\r\n        uint _size = 116 + bytes(u.name).length + bytes(u.birth).length;\r\n        bytes memory _data = new bytes(_size);\r\n        \r\n        uint counter = 0;\r\n        bytes memory baddr = abi.encodePacked(u.addr);\r\n        bytes memory bBefore = abi.encodePacked(u.notBefore);\r\n        bytes memory bAfter = abi.encodePacked(u.notAfter);\r\n        bytes memory bId = abi.encodePacked(u.id);\r\n        for (uint i = 0; i < 20; i++){\r\n            _data[counter] = bytes(baddr)[i];\r\n            counter++;\r\n        }\r\n        for (uint i = 0; i < bytes(u.name).length; i++){\r\n            _data[counter] = bytes(u.name)[i];\r\n            counter++;\r\n        }\r\n        for (uint i = 0; i < bytes(u.birth).length; i++){\r\n            _data[counter] = bytes(u.birth)[i];\r\n            counter++;\r\n        }\r\n        for (uint i = 0; i < 32; i++){\r\n            _data[counter] = bytes(bBefore)[i];\r\n            counter++;\r\n        }\r\n        for (uint i = 0; i < 32; i++){\r\n            _data[counter] = bytes(bAfter)[i];\r\n            counter++;\r\n        }\r\n        for (uint i = 0; i < 32; i++){\r\n            _data[counter] = bytes(bId)[i];\r\n            counter++;\r\n        }\r\n        \r\n        return _data;\r\n    }\r\n    \r\n    function setId() public view returns(bytes32){\r\n        return keccak256(abi.encodePacked(block.timestamp, msg.sender));\r\n    }\r\n    \r\n    function newCert() private {\r\n        certificates[msg.sender].caPubkey = 0x19dec5DE28cD9433d73A5FEA9C9D99E137064B57;\r\n        certificates[msg.sender].userPubkey = msg.sender;\r\n        certificates[msg.sender].certhash = certhash;\r\n    }\r\n    \r\n    function getCertificate() public view returns(address, string memory, string memory, uint, uint, bytes32, address){\r\n        return(addressToInfo[msg.sender].addr, addressToInfo[msg.sender].name, addressToInfo[msg.sender].birth, addressToInfo[msg.sender].notBefore, addressToInfo[msg.sender].notAfter, addressToInfo[msg.sender].id, msg.sender);\r\n    }\r\n    \r\n    function getCertInfo() public view returns(bytes32, address, address){\r\n        return(certificates[msg.sender].certhash, certificates[msg.sender].caPubkey, certificates[msg.sender].userPubkey);\r\n    }\r\n    \r\n    function issue(string memory name, string memory birth) public {\r\n        if(hasinfo() == false){\r\n            setTime();\r\n            newUserInfo(name, birth);\r\n            newCert();\r\n        }\r\n    }\r\n    \r\n    function verification(bytes32 hash) public view returns(bool){\r\n        if(hash == certificates[msg.sender].certhash){\r\n            return true;\r\n        }\r\n        else{\r\n            return false;\r\n        }\r\n    }\r\n\r\n    function verification2(string memory name, string memory birth, uint nbefore, uint nafter, bytes32 id) public view returns(bool){\r\n        uint _size = 116 + bytes(name).length + bytes(birth).length;\r\n        bytes memory _data = new bytes(_size);\r\n        \r\n        uint counter = 0;\r\n        bytes memory baddr = abi.encodePacked(msg.sender);\r\n        bytes memory bBefore = abi.encodePacked(nbefore);\r\n        bytes memory bafter = abi.encodePacked(nafter);\r\n        bytes memory bId = abi.encodePacked(id);\r\n        for (uint i = 0; i < 20; i++){\r\n            _data[counter] = bytes(baddr)[i];\r\n            counter++;\r\n        }\r\n        for (uint i = 0; i < bytes(name).length; i++){\r\n            _data[counter] = bytes(name)[i];\r\n            counter++;\r\n        }\r\n        for (uint i = 0; i < bytes(birth).length; i++){\r\n            _data[counter] = bytes(birth)[i];\r\n            counter++;\r\n        }\r\n        for (uint i = 0; i < 32; i++){\r\n            _data[counter] = bytes(bBefore)[i];\r\n            counter++;\r\n        }\r\n        for (uint i = 0; i < 32; i++){\r\n            _data[counter] = bytes(bafter)[i];\r\n            counter++;\r\n        }\r\n        for (uint i = 0; i < 32; i++){\r\n            _data[counter] = bytes(bId)[i];\r\n            counter++;\r\n        }\r\n        \r\n        bytes32 verifyHash = keccak256(_data);\r\n        \r\n        if(verifyHash == certificates[msg.sender].certhash){\r\n            return true;\r\n        }\r\n        else{\r\n            return false;\r\n        }\r\n    }\r\n    \r\n    function deleteCert() public {\r\n        del.push(deleteInfo(certhash));\r\n        delete addressToInfo[msg.sender];\r\n        delete certificates[msg.sender];\r\n    }\r\n}",
  "sourcePath": "D:\\Blockchain3\\truffle\\contracts\\certificate.sol",
  "compiler": {
    "name": "solc",
    "version": "0.8.11+commit.d7f03943.Emscripten.clang"
  },
  "schemaVersion": "3.4.4",
  "updatedAt": "2022-01-24T05:21:49.638Z",
  "networkType": "ethereum",
  "devdoc": {
    "kind": "dev",
    "methods": {},
    "version": 1
  },
  "userdoc": {
    "kind": "user",
    "methods": {},
    "version": 1
  }
}